{
  "contractName": "PredictionMarket",
  "abi": [
    {
      "inputs": [
        {
          "internalType": "address",
          "name": "_oracle",
          "type": "address"
        }
      ],
      "stateMutability": "nonpayable",
      "type": "constructor"
    },
    {
      "inputs": [
        {
          "internalType": "enum PredictionMarket.Side",
          "name": "",
          "type": "uint8"
        }
      ],
      "name": "bets",
      "outputs": [
        {
          "internalType": "uint256",
          "name": "",
          "type": "uint256"
        }
      ],
      "stateMutability": "view",
      "type": "function",
      "constant": true
    },
    {
      "inputs": [
        {
          "internalType": "address",
          "name": "",
          "type": "address"
        },
        {
          "internalType": "enum PredictionMarket.Side",
          "name": "",
          "type": "uint8"
        }
      ],
      "name": "betsPerGambler",
      "outputs": [
        {
          "internalType": "uint256",
          "name": "",
          "type": "uint256"
        }
      ],
      "stateMutability": "view",
      "type": "function",
      "constant": true
    },
    {
      "inputs": [],
      "name": "electionFinished",
      "outputs": [
        {
          "internalType": "bool",
          "name": "",
          "type": "bool"
        }
      ],
      "stateMutability": "view",
      "type": "function",
      "constant": true
    },
    {
      "inputs": [],
      "name": "oracle",
      "outputs": [
        {
          "internalType": "address",
          "name": "",
          "type": "address"
        }
      ],
      "stateMutability": "view",
      "type": "function",
      "constant": true
    },
    {
      "inputs": [],
      "name": "result",
      "outputs": [
        {
          "internalType": "enum PredictionMarket.Side",
          "name": "winner",
          "type": "uint8"
        },
        {
          "internalType": "enum PredictionMarket.Side",
          "name": "loser",
          "type": "uint8"
        }
      ],
      "stateMutability": "view",
      "type": "function",
      "constant": true
    },
    {
      "inputs": [
        {
          "internalType": "enum PredictionMarket.Side",
          "name": "_side",
          "type": "uint8"
        }
      ],
      "name": "placeBet",
      "outputs": [],
      "stateMutability": "payable",
      "type": "function",
      "payable": true
    },
    {
      "inputs": [],
      "name": "withdrawGain",
      "outputs": [],
      "stateMutability": "nonpayable",
      "type": "function"
    },
    {
      "inputs": [
        {
          "internalType": "enum PredictionMarket.Side",
          "name": "_winner",
          "type": "uint8"
        },
        {
          "internalType": "enum PredictionMarket.Side",
          "name": "_loser",
          "type": "uint8"
        }
      ],
      "name": "reportResult",
      "outputs": [],
      "stateMutability": "nonpayable",
      "type": "function"
    }
  ],
  "bytecode": "0x608060405234801561001057600080fd5b50604051610f40380380610f40833981810160405281019061003291906100dc565b80600260006101000a81548173ffffffffffffffffffffffffffffffffffffffff021916908373ffffffffffffffffffffffffffffffffffffffff16021790555050610109565b600080fd5b600073ffffffffffffffffffffffffffffffffffffffff82169050919050565b60006100a98261007e565b9050919050565b6100b98161009e565b81146100c457600080fd5b50565b6000815190506100d6816100b0565b92915050565b6000602082840312156100f2576100f1610079565b5b6000610100848285016100c7565b91505092915050565b610e28806101186000396000f3fe60806040526004361061007b5760003560e01c80637dc0d1d01161004e5780637dc0d1d0146101085780637e0ecc00146101335780639d5a373914610170578063beab6e7e146101ad5761007b565b80632b539c861461008057806343046844146100975780634ec942b7146100b357806365372147146100dc575b600080fd5b34801561008c57600080fd5b506100956101d8565b005b6100b160048036038101906100ac9190610847565b6104f1565b005b3480156100bf57600080fd5b506100da60048036038101906100d59190610874565b610621565b005b3480156100e857600080fd5b506100f161077d565b6040516100ff92919061092b565b60405180910390f35b34801561011457600080fd5b5061011d6107a9565b60405161012a9190610995565b60405180910390f35b34801561013f57600080fd5b5061015a60048036038101906101559190610847565b6107cf565b60405161016791906109c9565b60405180910390f35b34801561017c57600080fd5b5061019760048036038101906101929190610a10565b6107e7565b6040516101a491906109c9565b60405180910390f35b3480156101b957600080fd5b506101c261080c565b6040516101cf9190610a6b565b60405180910390f35b6000600460003373ffffffffffffffffffffffffffffffffffffffff1673ffffffffffffffffffffffffffffffffffffffff1681526020019081526020016000206000600160000160009054906101000a900460ff1660018111156102405761023f6108b4565b5b6001811115610252576102516108b4565b5b8152602001908152602001600020549050600081116102a6576040517f08c379a000000000000000000000000000000000000000000000000000000000815260040161029d90610ae3565b60405180910390fd5b6001151560008054906101000a900460ff161515146102fa576040517f08c379a00000000000000000000000000000000000000000000000000000000081526004016102f190610b4f565b60405180910390fd5b600060036000600160000160009054906101000a900460ff166001811115610325576103246108b4565b5b6001811115610337576103366108b4565b5b8152602001908152602001600020548260036000600160000160019054906101000a900460ff1660018111156103705761036f6108b4565b5b6001811115610382576103816108b4565b5b81526020019081526020016000205461039b9190610b9e565b6103a59190610c27565b826103b09190610c58565b90506000600460003373ffffffffffffffffffffffffffffffffffffffff1673ffffffffffffffffffffffffffffffffffffffff1681526020019081526020016000206000806001811115610408576104076108b4565b5b600181111561041a576104196108b4565b5b8152602001908152602001600020819055506000600460003373ffffffffffffffffffffffffffffffffffffffff1673ffffffffffffffffffffffffffffffffffffffff1681526020019081526020016000206000600180811115610482576104816108b4565b5b6001811115610494576104936108b4565b5b8152602001908152602001600020819055503373ffffffffffffffffffffffffffffffffffffffff166108fc829081150290604051600060405180830381858888f193505050501580156104ec573d6000803e3d6000fd5b505050565b6000151560008054906101000a900460ff16151514610545576040517f08c379a000000000000000000000000000000000000000000000000000000000815260040161053c90610cfa565b60405180910390fd5b346003600083600181111561055d5761055c6108b4565b5b600181111561056f5761056e6108b4565b5b8152602001908152602001600020600082825461058c9190610c58565b9250508190555034600460003373ffffffffffffffffffffffffffffffffffffffff1673ffffffffffffffffffffffffffffffffffffffff16815260200190815260200160002060008360018111156105e8576105e76108b4565b5b60018111156105fa576105f96108b4565b5b815260200190815260200160002060008282546106179190610c58565b9250508190555050565b3373ffffffffffffffffffffffffffffffffffffffff16600260009054906101000a900473ffffffffffffffffffffffffffffffffffffffff1673ffffffffffffffffffffffffffffffffffffffff16146106b1576040517f08c379a00000000000000000000000000000000000000000000000000000000081526004016106a890610d66565b60405180910390fd5b6000151560008054906101000a900460ff16151514610705576040517f08c379a00000000000000000000000000000000000000000000000000000000081526004016106fc90610dd2565b60405180910390fd5b81600160000160006101000a81548160ff0219169083600181111561072d5761072c6108b4565b5b021790555080600160000160016101000a81548160ff0219169083600181111561075a576107596108b4565b5b021790555060016000806101000a81548160ff0219169083151502179055505050565b60018060000160009054906101000a900460ff16908060000160019054906101000a900460ff16905082565b600260009054906101000a900473ffffffffffffffffffffffffffffffffffffffff1681565b60036020528060005260406000206000915090505481565b6004602052816000526040600020602052806000526040600020600091509150505481565b60008054906101000a900460ff1681565b600080fd5b6002811061082f57600080fd5b50565b60008135905061084181610822565b92915050565b60006020828403121561085d5761085c61081d565b5b600061086b84828501610832565b91505092915050565b6000806040838503121561088b5761088a61081d565b5b600061089985828601610832565b92505060206108aa85828601610832565b9150509250929050565b7f4e487b7100000000000000000000000000000000000000000000000000000000600052602160045260246000fd5b600281106108f4576108f36108b4565b5b50565b6000819050610905826108e3565b919050565b6000610915826108f7565b9050919050565b6109258161090a565b82525050565b6000604082019050610940600083018561091c565b61094d602083018461091c565b9392505050565b600073ffffffffffffffffffffffffffffffffffffffff82169050919050565b600061097f82610954565b9050919050565b61098f81610974565b82525050565b60006020820190506109aa6000830184610986565b92915050565b6000819050919050565b6109c3816109b0565b82525050565b60006020820190506109de60008301846109ba565b92915050565b6109ed81610974565b81146109f857600080fd5b50565b600081359050610a0a816109e4565b92915050565b60008060408385031215610a2757610a2661081d565b5b6000610a35858286016109fb565b9250506020610a4685828601610832565b9150509250929050565b60008115159050919050565b610a6581610a50565b82525050565b6000602082019050610a806000830184610a5c565b92915050565b600082825260208201905092915050565b7f796f7520646f206e6f74206861766520616e792077696e6e696e672062657400600082015250565b6000610acd601f83610a86565b9150610ad882610a97565b602082019050919050565b60006020820190508181036000830152610afc81610ac0565b9050919050565b7f656c656374696f6e206e6f742066696e69736865640000000000000000000000600082015250565b6000610b39601583610a86565b9150610b4482610b03565b602082019050919050565b60006020820190508181036000830152610b6881610b2c565b9050919050565b7f4e487b7100000000000000000000000000000000000000000000000000000000600052601160045260246000fd5b6000610ba9826109b0565b9150610bb4836109b0565b9250817fffffffffffffffffffffffffffffffffffffffffffffffffffffffffffffffff0483118215151615610bed57610bec610b6f565b5b828202905092915050565b7f4e487b7100000000000000000000000000000000000000000000000000000000600052601260045260246000fd5b6000610c32826109b0565b9150610c3d836109b0565b925082610c4d57610c4c610bf8565b5b828204905092915050565b6000610c63826109b0565b9150610c6e836109b0565b9250827fffffffffffffffffffffffffffffffffffffffffffffffffffffffffffffffff03821115610ca357610ca2610b6f565b5b828201905092915050565b7f656c656374696f6e2069732066696e6973686564000000000000000000000000600082015250565b6000610ce4601483610a86565b9150610cef82610cae565b602082019050919050565b60006020820190508181036000830152610d1381610cd7565b9050919050565b7f6f6e6c79206f7261636c65000000000000000000000000000000000000000000600082015250565b6000610d50600b83610a86565b9150610d5b82610d1a565b602082019050919050565b60006020820190508181036000830152610d7f81610d43565b9050919050565b7f656c656374696f6e20697320616c72656164792066696e697368656400000000600082015250565b6000610dbc601c83610a86565b9150610dc782610d86565b602082019050919050565b60006020820190508181036000830152610deb81610daf565b905091905056fea26469706673582212209c2d80ef2e18af4a68d19451c7bb66a011b87c59a50bc18f2f6fa056fb3b108a64736f6c634300080a0033",
  "immutableReferences": {},
  "source": "pragma solidity ^0.8.10;\r\n\r\ncontract PredictionMarket {\r\n    enum Side { Biden, Trump }\r\n    bool public electionFinished;\r\n    struct Result {\r\n        Side winner;\r\n        Side loser;\r\n    }\r\n    Result public result;\r\n    address public oracle;\r\n    mapping(Side => uint) public bets;\r\n    mapping(address => mapping(Side => uint)) public betsPerGambler;\r\n\r\n    constructor (address _oracle) {\r\n        oracle = _oracle;\r\n    }\r\n\r\n    function placeBet(Side _side) external payable {\r\n        require(electionFinished == false, 'election is finished');\r\n        bets[_side] += msg.value;\r\n        betsPerGambler[msg.sender][_side] += msg.value;\r\n    }\r\n\r\n    function withdrawGain() external {\r\n        uint gamblerBet = betsPerGambler[msg.sender][result.winner];\r\n        require(gamblerBet > 0, 'you do not have any winning bet');\r\n        require(electionFinished == true, 'election not finished');\r\n        uint gain = gamblerBet + bets[result.loser] * gamblerBet / bets[result.winner];\r\n        betsPerGambler[msg.sender][Side.Biden] = 0;\r\n        betsPerGambler[msg.sender][Side.Trump] = 0;\r\n        payable(msg.sender).transfer(gain);\r\n    }\r\n    \r\n    function reportResult(Side _winner, Side _loser) external {\r\n        require(oracle == msg.sender, 'only oracle');\r\n        require(electionFinished == false, 'election is already finished');\r\n        result.winner = _winner;\r\n        result.loser = _loser;\r\n        electionFinished = true;\r\n    }\r\n}",
  "sourcePath": "E:\\wamp64\\www\\React\\eth-prediction-market\\contracts\\PredictionMarket.sol",
  "compiler": {
    "name": "solc",
    "version": "0.8.10+commit.fc410830.Emscripten.clang"
  },
  "schemaVersion": "3.4.3",
  "updatedAt": "2022-02-05T16:23:25.050Z",
  "networkType": "ethereum",
  "devdoc": {
    "kind": "dev",
    "methods": {},
    "version": 1
  },
  "userdoc": {
    "kind": "user",
    "methods": {},
    "version": 1
  }
}